:020000040800F2
:10000000FCFF002005200000D11F0000D11F0000D0
:10001000D11F0000D11F0000D11F0000D11F000020
:10002000D11F0000D11F0000D11F0000D11F000010
:10003000D11F0000D11F0000D11F0000D11F000000
:10004000D11F0000D11F0000D11F0000D11F0000F0
:10005000D11F0000D11F0000D11F0000D11F0000E0
:10006000D11F0000D11F0000D11F0000D11F0000D0
:10007000D11F0000D11F0000D11F0000D11F0000C0
:10008000D11F0000D11F0000D11F0000D11F0000B0
:10009000D11F0000D11F0000D11F0000D11F0000A0
:1000A000D11F0000D11F0000D11F0000D11F000090
:1000B000D91F0000D11F0000D11F0000D11F000078
:1000C000D11F0000D11F0000D11F0000D11F000070
:1000D000D11F0000D11F0000D11F0000D11F000060
:1000E000D11F0000D11F0000D11F0000D11F000050
:1000F000D11F0000D11F0000D11F0000D11F000040
:10010000D11F0000D11F0000D11F0000D11F00002F
:10011000D11F0000D11F0000D11F0000D11F00001F
:10012000D11F0000D11F0000D11F0000D11F00000F
:10013000D11F0000D11F0000D11F0000D11F0000FF
:10014000D11F0000D11F0000D11F0000D11F0000EF
:1001500083B0CDF800E000F0FF031A09104603F069
:100160000F02134614E0194A02921FE0184A029245
:100170001CE0184A029219E0174A029216E0174A48
:10018000029213E0164A029210E0164A02920DE023
:100190000028E8D00128E9D00228EAD00328EBD0D3
:1001A0000428ECD00528EDD00628EED0012212B2AA
:1001B0009A40ADF8042002980A46BDF8041000F0F9
:1001C00085FADDF800E003B0704700BF0008014089
:1001D000000C0140001001400014014000180140D3
:1001E000001C01400020014001480068704700BF2A
:1001F000000A002081B0CDF800E0012252B23E4951
:100200000A6000F268010B686FF0006103EA010206
:10021000144603F00061C90E0B4602F00041B1F133
:10022000004F02D135490A6801E035490A6804F4F3
:100230007021090C0E464FF6FF7104EA01010D46CC
:1002400004F44011B1F5401F0DD16FF0706102EA66
:1002500001010E462A490A686FF070610A40284978
:100260000A60324616E004F48011B1F5801F09D10E
:100270004FF00301B140C94302EA010141F070614E
:100280000A4607E0610D090105FA01F1C9430A4078
:1002900042F070622BB1610D090105FA01F10A43C8
:1002A000FFE704F00041B1F1004F02D113490A60A9
:1002B00001E013490A6040F2000A81464FEA8A01D0
:1002C00009EB01010968B1F1FF3F10D009F13401D8
:1002D0004FEA8A03C91809680A4609EB030109684D
:1002E00008461146FFF734FF0AF1010AE6E7DDF898
:1002F00000E001B0704700BF000342421C00014013
:100300000400014082B0CDF800E003461946019197
:10031000FFF76AFF40F2E83100FB01F201990A6041
:100320001F490978C1F30311C8B21E49091808789A
:10033000C0B21A1D1968C140116019490988C1F37A
:10034000022188B2174909180878C0B203F20802DE
:10035000191D0968C140116011490988C1F3C22102
:1003600088B2104909180878C0B203F20C02191DAE
:100370000968C14011600A490988C1F3813188B216
:10038000094909180978C8B203F2100203F20C01F6
:100390000968B1FBF0F11160DDF800E002B07047D0
:1003A000041002408F2B00002C1D000081B0194961
:1003B00000EA0101084600220EE0042022E00820A5
:1003C00020E010201EE020201CE040201AE08020C9
:1003D00018E040F2001015E00F498842EDD00F49B7
:1003E0008842ECD00E498842EBD00E498842EAD0D0
:1003F0000D498842E9D00D498842E8D00C4988422D
:10040000E7D010460B49096841EA000209490A6031
:1004100001B0704700FCFFFF00080140000C0140E4
:10042000001001400014014000180140001C014070
:10043000002001401810024081B00168C1F3801013
:1004400001B0704789B0CDF800E0834698B28C4681
:10045000BDF824100A9E04ACADF80410ADF80800F5
:100460002046FFF74FFFBDF80800BDF80410644CAC
:10047000A34512D101256DB2624C2560624D634CDB
:100480002560634D634C2560634D644C2560644D6D
:10049000644C2560079C039456E0634CA34512D13D
:1004A00001256DB2614C2560614D584C2560614D50
:1004B000584C2560604D594C2560604D594C256065
:1004C000069C039440E05E4CA34512D101256DB219
:1004D0005C4C25605C4D4D4C25605C4D4D4C256061
:1004E0005B4D4E4C25605B4D4E4C2560069C039445
:1004F0002AE0594CA34512D101256DB2574C256015
:10050000574D424C2560574D424C2560564D434C4B
:100510002560564D434C2560069C039414E0544CD2
:10052000A34511D101256DB2524C2560524D374C77
:100530002560524D374C2560514D384C2560514D4A
:10054000384C2560069C0394ADF80410ADF8080003
:100550003046FFF74FFEBDF80800BDF804100BF160
:10056000100500242C600BF110052C680C432C6046
:100570000BF10C0500242C6018B140F4806080B2AF
:10058000FFE70BF10C052C6804432C600BF10C0603
:100590000125346865F34D3434600BF10C060125F8
:1005A000346865F3C30434600BF10C06012534682C
:1005B00065F3820434600BF1140500242C60039D64
:1005C000192465434FEA8C04B5FBF4F76424B7FBA8
:1005D000F4F42601350964246C433C1B240104F225
:1005E00032056424B5FBF4F404F00F0446EA040475
:1005F0000BF10805A4B22C60DDF800E009B07047EB
:100600000038014038034242150D0000040A002062
:10061000450A0000080A0020410B00000C0A0020D7
:10062000590B0000100A002000440040C40342425D
:1006300075090000290B00002D0A00009109000037
:1006400000480040C8034242110A0000A909000006
:10065000F9090000310D0000004C0040CC0342427B
:10066000DD090000E50C0000FD0C0000490D000054
:1006700000500040D0034242C1090000610D00005B
:10068000B10B0000990B000081B0ADF800100146DD
:10069000BDF800000B68C3F3C01202B9FAE70A1DE7
:1006A000106001B07047FFFF81B00168C1F34010D6
:1006B00001B0704781B00268C2F3401101B9FAE796
:1006C000011D096888B201B07047FFFF81B0CDF805
:1006D00000E08CB21546774B00EA03031E4618462D
:1006E000FFF764FEB4F1FF0F0CD1734B9D4203D1B1
:1006F0004FF033333360D9E0422D03D14FF0443310
:100700003360D3E04FF6FF739C4214D16A4B9D4295
:1007100007D14FF033333360341D4FF03333236050
:10072000C4E0422D07D14FF044333360341D4FF005
:1007300044332360BAE00021002005F001030BB12F
:1007400000211DE005F0020333B105F4C0730BB1C5
:10075000082100E0042113E005F0040333B105F0A3
:1007600020030BB1042100E0002109E005F008039B
:1007700033B105F020030BB10C2100E00821FFE7A5
:100780004E4B05EA03030BB1032009E005F40073A7
:100790000BB1022004E005F480630BB10120FFE7F8
:1007A00005F00C030BB10143FFE704F0FF039BB21C
:1007B000002B3BD0376800201FFA84F832462E46C3
:1007C00008282CD24FF0010303FA00F408EA0403CE
:1007D000A34222D185004FF00F03AB40DB4307EA71
:1007E000030401FA05F344EA03031D4606F481738A
:1007F000B3F5817F05D102F214044FF00103834069
:10080000236006F08203822B05D102F210044FF020
:100810000103834023602F46FFE7401CD0E71760A9
:100820001FFA88F00F463146164602E00F46294669
:10083000A0B2B0F1FF0F39D9331DD3F800800022E8
:10084000082A30D202F208044FF0010303FA04F43C
:1008500000EA0403A34224D195004FF00F03AB40FC
:10086000DB4308EA030807FA05F348EA030801F442
:100870008173B3F5817F07D106F2140502F20804F3
:100880004FF00103A3402B6001F08203822B07D1BC
:1008900006F2100502F208044FF00103A3402B609A
:1008A000FFE7521CCCE7331DC3F80080DDF800E001
:1008B00001B0704700FCFFFF1400080000080800AA
:1008C000014640F2000340F2000082B20846C1181F
:1008D000097821B15B1C9BB2521C92B2F7E790B22F
:1008E0007047FFFF93B20A46014640F2000440F20F
:1008F00000001FFA80F810469AB2EAB10B191D7871
:10090000EEB2631C9FB200EB08031C785FFA84F917
:1009100008F101081FFA88F8A54207D04E4502D217
:10092000FF2040B201E0012040B207E006B903E039
:10093000521E92B2BCB2E0E7002040B27047FFFF07
:1009400081B0044640F20000ADF8002082B20846B3
:10095000BDF8001059B183181B782370237813B1A8
:10096000521C92B2FFE7641C491E89B2F2E701B043
:100970007047FFFF81B0CDF800E081B20348FFF778
:1009800083FEDDF800E001B0704700BF0044004086
:1009900081B0CDF800E00348FFF74EFDDDF800E040
:1009A00001B070470044004081B0CDF800E003483A
:1009B000FFF780FEDDF800E001B07047004800401E
:1009C00081B0CDF800E081B20348FFF75DFEDDF8AD
:1009D00000E001B0704700BF0050004081B0CDF88A
:1009E00000E081B20348FFF74FFEDDF800E001B000
:1009F000704700BF004C004081B0CDF800E00348D4
:100A0000FFF752FEDDF800E001B0704700480040FB
:100A100081B0CDF800E081B20348FFF735FEDDF884
:100A200000E001B0704700BF0048004081B0CDF841
:100A300000E00348FFF738FEDDF800E001B0704742
:100A40000044004081B0CDF800E00348FFF732FEDB
:100A5000DDF800E001B070470038014081B0ADF82A
:100A600000100146BDF900000B78C2B2934207D0D6
:100A70000B46491C1A78002A01D1002001E0F3E757
:100A8000084601B07047FFFF81B013B20246C8B2FA
:100A900011461DB22CB26B1E1DB214B10870491C58
:100AA000F8E7104601B0704781B000910146009808
:100AB0000B461C465A1C15460346421C10461A7823
:100AC000227022780AB12B46F3E7084601B070473E
:100AD00081B0CDF800E004462046FFF7F1FEC5B234
:100AE000204600F019FB0124EBB20D4909888C4225
:100AF00011D222010B4989180988994208D1220193
:100B000008498918091D0968814201D1A0B203E092
:100B1000641CA4B2E9E70020DDF800E001B07047F2
:100B2000E0030020E403002081B0CDF800E003489A
:100B3000FFF7C0FDDDF800E001B070470044004061
:100B400081B0CDF800E00348FFF7AEFDDDF800E02E
:100B500001B070470038014081B0CDF800E0034893
:100B6000FFF76AFCDDF800E001B070470038014093
:100B700081B0CDF800E0019D2C4610B408B493B2CA
:100B80008AB201460348FFF75DFC02B0DDF800E0E1
:100B900001B070470044004081B0CDF800E0034848
:100BA000FFF74AFCDDF800E001B07047005000405C
:100BB00081B0CDF800E00348FFF776FDDDF800E0F6
:100BC00001B070470050004081B0CDF800E04FF018
:100BD000420289B2FFF77AFDDDF800E001B070470C
:100BE00085B0CDF800E0824602918DF80C208DF89A
:100BF00010305046FFF764FE8DF81100C4B2102C7F
:100C000002D910248DF81140012751469DF80C405F
:100C1000A7423FD2032404FB07F5029C641901910B
:100C20002046FFF74DFE0199C2B240F2000C8A4601
:100C3000F9B25FFA8CFB5FFA82FC9DF81140A34584
:100C400023D20AEB0B06032404FB01F5029C641972
:100C50008DF804105FFA8CF231462046FFF742FE11
:100C60009DF8041058B99DF810400CB9C8B212E0B4
:100C70009DF81040012C02D15FFA8BF00BE00BF1D4
:100C80000104E0B25FFA80FBD7E74C1CE5B25146A5
:100C9000EFB2BBE70020DDF800E005B07047FFFFD2
:100CA00081B0CDF800E0019D2C4610B408B493B299
:100CB0008AB201460348FFF7C5FB02B0DDF800E049
:100CC00001B070470048004081B0CDF800E0044A10
:100CD00089B2FFF7FBFCDDF800E001B0704700BF10
:100CE0001400080081B0CDF800E00348FFF7E2FCF3
:100CF000DDF800E001B07047004C004081B0CDF855
:100D000000E00348FFF7D0FCDDF800E001B07047D9
:100D1000004C004081B0CDF800E081B20348FFF7FD
:100D2000B3FCDDF800E001B0704700BF00380140BF
:100D300081B0CDF800E00348FFF77EFBDDF800E06E
:100D400001B070470048004081B0CDF800E0034892
:100D5000FFF772FBDDF800E001B07047004C004087
:100D600081B0CDF800E00348FFF7A4FCDDF800E017
:100D700001B070470050004081B0CDF800E0019D07
:100D80002C4610B408B493B28AB201460348FFF768
:100D900059FB02B0DDF800E001B0704700380140B7
:100DA00001490860704700BF9481224201490860F0
:100DB000704700BFAC81224201490860704700BF04
:100DC0009881224201490860704700BFB0812242E9
:100DD00001490860704700BFA8012242014908602C
:100DE000704700BFB881224201490860704700BFC8
:100DF000B001224201490860704700BFAC012242A5
:100E000001490860704700BF9881214200221649BD
:100E10000A70002215490A70012215490A70002241
:100E200014490A60012214490A7014490A881449B5
:100E300089180870114909884A1C10490A800F490D
:100E40000A8810498A4202D301220F490A700B49CD
:100E50000A8840F2E7318A4204D1084909884A1ECB
:100E600006490A80704700BFEB050020E209002018
:100E7000E3090020E8090020E9050020F80500202A
:100E8000FA050020C0000000DB03002081B0CDF88F
:100E900000E0044C2468A047C0B2DDF800E001B0D7
:100EA000704700BFE405002081B0CDF800E0044C9D
:100EB0002468A047C0B2DDF800E001B0704700BF71
:100EC000E409002081B0CDF800E083468A46BBF1FA
:100ED000000F18D09BF80020AAB15046FFF7F0FC95
:100EE00082B251465846FFF7FDFC08B958460BE060
:100EF0009AF80020D3B20BF1010219B21046FFF7A5
:100F0000ADFD8346E3E70020DDF800E001B0704767
:100F100044F67F77C0F212077F1EFDD100BF00BFED
:100F200000BF00BF00BF704701490860704700BFA5
:100F30009C81214289B0CDF800E0069007910DF127
:100F4000040B0BF1110ADFF8B0C000F061FE0023C2
:100F500007222A490698FFF743FE8DF82000012357
:100F6000072226490698FFF73BFE8DF82100002353
:100F7000062223490698FFF733FE8DF8220001234D
:100F800006221F490698FFF72BFEC1B208B91020B0
:100F900000E0C8B29DF82120841A9DF82130069AFD
:100FA000D31801AA19461046A2B2FFF7C9FC01AA3C
:100FB0001046FFF78DFDC1B2C2B21301114AD2181B
:100FC0000C321368079A1360079A141D0B010D4A1F
:100FD000D218083212682260079A02F208039DF8BC
:100FE00020201A70079A0832531C9DF822201A708C
:100FF000DDF800E009B070477E2B0000B30300204D
:10100000C8030020E403002083B0CDF800E0029084
:101010000190012100F058FC01980278242A0AD19D
:1010200040F2F41212B200210548FFF72DFD02999B
:101030000348FFF739FDDDF800E003B0704700BF5B
:101040001C00002081B0EFF3108C604662B601B046
:101050007047FFFF81B0042806D11949096841F49F
:10106000803217490A6028E0052806D1144909682A
:1010700041F4003212490A601FE0062806D11049E7
:10108000096841F480220E490A6016E00F2806D153
:101090000C49096841F002020A490A600DE0102873
:1010A0000BD3A0F2100461098A0007498B1804F0E1
:1010B0001F024FF001019140196001B0704700BF5D
:1010C00024ED00E010E000E000E100E081B0CDF8A8
:1010D00000E00178CCB2A0B2034C2468A047002005
:1010E000DDF800E001B07047DC030020026806492B
:1010F0000A60011D0A6805490A6000F208010A68D1
:1011000003490A60704700BFFC090020E409002081
:10111000E40500207047FFFF00214FF0050403465F
:10112000C8B21A46591C0B461178CAB24AB100F02F
:101130000701C9B202FA01F189B26418401CC0B2B9
:10114000EFE720467047FFFF00F2300303F218017B
:101150000A6806490A6003F21C010A6804490A6029
:10116000011D0A6803490A60704700BFF4090020A6
:10117000F8090020F009002081B0CDF800E009490D
:1011800002B440F2000340F2000240F20001FFF717
:10119000EFFC01B0044A05490A600020DDF800E0D8
:1011A00001B07047802A000075090000DC030020B0
:1011B00081B0CDF800E00B4D00F20C010C6800F29C
:1011C00008010B68011D0A680168084691B29AB2CD
:1011D000A3B220B4FFF764FD01B00020DDF800E009
:1011E00001B07047A829000081B0CDF800E0A9E067
:1011F000012905D140F220016548FFF7E5FC04E034
:1012000040F220016248FFF75FFDBBE0012905D1F4
:1012100040F208015F48FFF7D7FC04E040F2080104
:101220005C48FFF751FDADE0012905D144F2000112
:101230005948FFF7C9FC04E044F200015648FFF7A3
:1012400043FD9FE0012905D140F200415148FFF7DD
:10125000BBFC04E040F200414E48FFF735FD91E051
:10126000012905D140F600014A48FFF7ADFC04E032
:1012700040F600014748FFF727FD83E0012905D12B
:1012800041F200014348FFF79FFC04E041F20001F6
:101290004048FFF719FD75E0012905D141F2000131
:1012A0003D48FFF791FC04E041F200013A48FFF7A6
:1012B0000BFD67E0012905D140F600013648FFF734
:1012C00083FC04E040F600013348FFF7FDFC59E0E1
:1012D000012905D140F240012F48FFF775FC04E0D9
:1012E00040F240012C48FFF7EFFC4BE0012905D10B
:1012F00040F220012848FFF767FC04E040F220019B
:101300002548FFF7E1FC3DE0012905D140F240010D
:101310002248FFF759FC04E040F240011F48FFF764
:10132000D3FC2FE0012905D140F280011B48FFF7D3
:101330004BFC04E040F280011848FFF7C5FC21E0B7
:10134000012020E000283FF453AF01283FF45EAFB6
:1013500002283FF469AF03283FF474AF04283FF438
:101360007FAF05283FF48AAF06283FF495AF0728E2
:10137000A0D00828ACD00928B8D00A28C4D00B289F
:10138000D0D0DDE70020DDF800E001B0704700BFFD
:10139000000801400010014000140140000C014011
:1013A00081B0CDF800E0A9E0012905D140F210019B
:1013B0006548FFF709FC04E040F210016248FFF7BE
:1013C00083FCBBE0012905D140F204015F48FFF72F
:1013D000FBFB04E040F204015C48FFF775FCADE064
:1013E000012905D142F200015948FFF7EDFB04E065
:1013F00042F200015648FFF767FC9FE0012905D142
:1014000040F200415148FFF7DFFB04E040F20041A9
:101410004E48FFF759FC91E0012905D140F6000143
:101420004A48FFF7D1FB04E040F600014748FFF7C8
:101430004BFC83E0012905D141F200014348FFF74D
:10144000C3FB04E041F200014048FFF73DFC75E0BA
:10145000012905D140F201013B48FFF7B5FB04E04B
:1014600040F201013848FFF72FFC67E0012905D160
:1014700040F200413648FFF7A7FB04E040F200418C
:101480003348FFF721FC59E0012905D140F2002142
:101490002F48FFF799FB04E040F200212C48FFF7AA
:1014A00013FC4BE0012905D140F200112848FFF759
:1014B0008BFB04E040F200112548FFF705FC3DE0FE
:1014C000012905D140F240012248FFF77DFB04E0ED
:1014D00040F240011F48FFF7F7FB2FE0012905D13B
:1014E00040F280011B48FFF76FFB04E040F28001EF
:1014F0001848FFF7E9FB21E0012020E000283FF435
:1015000053AF01283FF45EAF02283FF469AF0328D0
:101510003FF474AF04283FF47FAF05283FF48AAF4F
:1015200006283FF495AF0728A0D00828ACD009289A
:10153000B8D00A28C4D00B28D0D0DDE70020DDF8D1
:1015400000E001B0704700BF0008014000100140FA
:1015500000140140000C014081B0CDF800E00B4DBB
:1015600000F20C010C6800F208010B68011D0A680A
:101570000168084691B29AB2A3B220B4FFF7F8FA14
:1015800001B00020DDF800E001B07047802A0000C3
:1015900081B0CDF800E0094902B440F2000340F206
:1015A000000240F20001FFF7E7FB01B0044A0549E1
:1015B0000A600020DDF800E001B07047142A000046
:1015C000150D0000DC03002081B0CDF800E00949D2
:1015D00002B440F2000340F2000240F20001FFF7C3
:1015E000C7FA01B0044A05490A600020DDF800E0AE
:1015F00001B07047802A000075090000DC0300205C
:1016000081B0CDF800E0094902B440F2000340F295
:10161000000240F20001FFF743FB01B0044A054914
:101620000A600020DDF800E001B07047A829000042
:10163000110A0000DC03002001490860704700BF68
:101640009001214201490860704700BFA8812242F1
:1016500001490860704700BFA48122420149086027
:10166000704700BFB001224201490860704700BFC7
:101670008001214201490860704700BFA0812242D9
:1016800001490860704700BF940121420149086088
:10169000704700BF8C01224201490860704700BFBB
:1016A0009881214201490860704700BF9C81214216
:1016B00001490860704700BFAC012242014908603F
:1016C000704700BFA801224201490860704700BF6F
:1016D0008801224201490860704700BFB48122425C
:1016E00081B0CDF800E009E00846FFF761FD0AE0AF
:1016F0000846FFF731FF06E0012004E00028F3D0A0
:101700000128F5D0F8E7DDF800E001B07047FFFFF1
:1017100001490870704700BFE8050020ADF2584D40
:10172000CDF800E00DF1040B0BF58A6ADFF8A8C0D4
:1017300000F06EFA5FFA82FC00238DF85434FFF754
:10174000C1FB054608B9019840E06B1C242109B291
:101750001846FFF783F9014608B9019836E04C1B9B
:1017600002ABA2B229461846FFF7EAF802AE5FFACA
:101770008CF435469DF85434A34218D02C2109B27C
:101780002846FFF76BF9431C1E461B782C2B07D10C
:101790009DF854345B1C1BB2A34201D1019815E0A3
:1017A0009DF854345B1C8DF854343546E2E76B1CCD
:1017B0002C2109B21846FFF751F9441BFCABA2B229
:1017C00029461846FFF7BCF8FCAB1846DDF800E0E8
:1017D0000DF2584D704700BF7C21000081B0CDF85C
:1017E00000E05FFA81F95FFA82FA0FE05FFA8AF1AE
:1017F0005FFA89F0FFF7D4FD0DE05FFA8AF15FFA36
:1018000089F0FFF7F1FC06E0012004E00028EDD0AC
:101810000128F2D0F8E7DDF800E001B07047FFFFE3
:1018200081B0CDF800E090B101200D4C2468A047B4
:10183000FFF76EFB00200A4C2468A047FFF768FB07
:10184000FFF766FB0120064C2468A04703E0002058
:10185000034C2468A047DDF800E001B0704700BFEA
:10186000F009002081B0CDF800E011E00846FFF754
:10187000C7FE16E00846FFF7A7FE12E00846FFF78E
:1018800087FE0EE00846FFF777FC0AE0012008E03B
:101890000028EBD00128EDD02028EFD03028F1D05F
:1018A000F4E7DDF800E001B07047FFFF81B0CDF84C
:1018B00000E003460846FFF719FC1846FFF744FC12
:1018C000DDF800E001B0704783B0CDF800E00246DB
:1018D00010460D228DF808200A228DF809201FE0FD
:1018E000FFF7F4FB23E002782AB10190FFF7EEFB4B
:1018F0000198401CF7E71AE002782AB10190FFF73F
:10190000E5FB0198401CF7E702AA1046FFF7DEFB53
:101910000DF109021046FFF7D9FB08E0062007E0A9
:101920000029DDD00129DED00229E5D0F6E700202C
:10193000DDF800E003B0704781B0CDF800E0012190
:1019400049B20E480160002149B20D4801600121F1
:101950000C48016048F69F410B48016040F22C00A2
:10196000FFF778FB012149B2084801600448016093
:10197000FFF768FBDDF800E001B0704780034242EA
:1019800000000042280000402C000040800100427E
:1019900081B0CDF800E00020012806D0FFF776FAEC
:1019A00018B1FFF781FAFFF731FA524800780028A2
:1019B00000F03A805048007810B10020FFF7AAFBF1
:1019C00000214E48017000214D4801704D480078BB
:1019D000022805D14C494D484D4C2468A0470BE0E6
:1019E0004B494A48FFF7A6FA02214648017046498A
:1019F0004648474C2468A04700213E48017000211A
:101A00004448018000214148017000214248017092
:101A10000021424801700021414801703648007899
:101A200010B10120FFF776FB3C48007800282CD04D
:101A30003148007810B10020FFF76CFB00212F48DF
:101A4000017000212E48017031493048FFF772FAC9
:101A500000212C4801702C492C482D4C2468A047AB
:101A600000212C48018000212848017000212A48CB
:101A700001700021294801700021294801701E4889
:101A8000007810B10120FFF745FB234800780028BB
:101A90002CD01948007810B10020FFF73BFB002143
:101AA0001648017000211648017019491748FFF7C0
:101AB00041FA01211348017013491448144C246859
:101AC000A047002113480180002110480170002127
:101AD0001148017000211148017000211048017067
:101AE0000548007810B10120FFF714FBDDF800E095
:101AF00001B07047DB030020E8050020E905002065
:101B0000EA050020F6050020F4050020FA05002073
:101B1000EC050020F8050020EB050020E20900207C
:101B2000E309002081B0CDF800E00023274A1370BC
:101B30000023274A13700023264A13700023264AE5
:101B40001370264A1060264A1160264A1046FFF795
:101B5000E3FA254A10600023244A13800123244A13
:101B600013800023234A13800023234A1370002389
:101B7000194A13700023174A13700123134A137074
:101B80000023154A13700023124A137000230F4AD2
:101B900013700023194A13600123194A137000239C
:101BA000174A13700023174A13600123164A137053
:101BB0000023154A1370154A127812B10120FFF75D
:101BC000A9FADDF800E001B0704700BFE30900208A
:101BD000DB030020E2090020EB050020F0030020D9
:101BE000EC030020DA030020E8030020E4030020D7
:101BF000E0030020F8050020FA050020EC09002091
:101C0000EA050020E8090020E9050020E805002099
:101C100081B01CF8019B0BF8019BBBEB0A0FF8D1BC
:101C200001B070471C480078C8B11C4802681B48C6
:101C30000068411C194801601948006882420ED9A9
:101C400000211548017000211448016015480188E1
:101C500015484118002008700121144801701448EB
:101C60000078C0B11348026812480068411C11484E
:101C70000160114882420ED900210D4801700021F7
:101C80000C48016007480188074841180020087087
:101C900001210A4801707047EA050020EC09002084
:101CA000F0050020F8050020FA050020EB050020D3
:101CB000E9050020E809002005000000E2090020F5
:101CC00081B01548006840F00101134801601349D4
:101CD0001348016010480168124801400E48016035
:101CE0000D4801686FF4802001400B4801600C48EA
:101CF00001686FF4FE000140094801600648016870
:101D00006FF0A0500140044801604FF00001064808
:101D1000016001B0704700BF001002400000FFF0FA
:101D200004100240FFFFF6FE2C10024002040608D9
:101D300081B0CDF800E0FFF7FFFD10491048FFF734
:101D4000B5FD104840F2DC51FFF7ECFE0120FFF733
:101D5000DFFC0120FFF764FD48F2FF67C0F2933714
:101D60007F1EFDD100BF00BF00BF00BF00BF00212C
:101D700005480160DDF800E001B07047B02B0000BD
:101D8000EC2A000009100000180000208EB0CDF8E9
:101D900000E00DF1040B0BF1320ADFF854C1FFF73C
:101DA00037FFFFF7F5FD5348016841F28830814263
:101DB0000FD951490878401CC0B20870022802D9D6
:101DC00000214D48017000214A48016001214B4823
:101DD000017049480078002829D148480078012836
:101DE00025D147480221FFF76FFD46480221FFF742
:101DF0006BFD022244494548FFF790FC014620B99B
:101E000043480221FFF760FD0AE001A8FEF74CFEFF
:101E100040480121FFF758FD01A80221FFF754FDBA
:101E20000021364801703C480221FFF74DFD324841
:101E30000078022829D131480078012825D1374877
:101E40000221FFF741FD36480221FFF73DFD09223F
:101E50002D492E48FFF762FC014620B93148022186
:101E6000FFF732FD0AE001A8FEF71EFE2E48012111
:101E7000FFF72AFD01A80221FFF726FD00211F48D8
:101E800001702A480221FFF71FFD1B480078012836
:101E900029D11A480078012825D125480221FFF7C9
:101EA00013FD24480221FFF70FFD042216491748AD
:101EB000FFF734FC014620B91F480221FFF704FD5B
:101EC0000AE001A8FEF7F0FD1C480121FFF7FCFC29
:101ED00001A80221FFF7F8FC00210848017018480A
:101EE0000221FFF7F1FCDDF800E00EB0704700BF03
:101EF0004C2B0000180000201002002011020020CE
:101F00001202002015020020400200201C000020C8
:101F1000500200206F0200207C020020A702002057
:101F2000AA020020D5020020F402002001030020B4
:101F30002C0300202F0300205A0300207A030020E6
:101F40008803002081B0CDF800E0012206210020A6
:101F5000FFF744FC012207210020FFF73FFC00228D
:101F600001210020FFF73AFC084801460020FFF756
:101F7000B7FB42F280512020FFF774FC0448022195
:101F8000FFF7A2FCDDF800E001B07047A02B0000D5
:101F90000000002081B04FF000094FF0000CBDEBB5
:101FA0000A0F04DCBDEB0B0F01DBD446EA464BF80D
:101FB000049BBBEB0A0FFAD1BCEB0A0F05DDE2462E
:101FC000D9F800B00BF1040BF1E701B07047FFFF47
:101FD00081B0FEE701B0704781B0CDF800E0FFF7B7
:101FE00021FE06490868401C0860002149B20448E7
:101FF0000160DDF800E001B0704700BF180000206C
:102000000002004200F00EF800F018FE00F0ACF8FC
:1020100000F0D4FDFFF796FFFFF78AFEFFF7B6FE4C
:10202000FCE7FEE781B0CDF800E0464A464B474C5E
:1020300047494BF68030814206D94648006840F057
:1020400002014448016011E045F6C050814206D9C2
:102050004048006840F001013E48016006E03D480C
:1020600001686FF0070001403A480160FFF728FE61
:102070003948036039480460394802EA00013948A8
:10208000016002F0010040B119463648006800F0D6
:102090000200002800D1F8E700E0194602F4803081
:1020A00040B10B462F48006800F40030002800D1F2
:1020B000F8E700E00B4602F0805068B1294800685C
:1020C00040F08051274801602648006800F0005029
:1020D000002800D1F8E7FFE702F0806078B12148DE
:1020E000006840F080611F48016011461A461D4893
:1020F000006800F00060002800D1F8E701E0114618
:102100001A4601F0807070B11648006840F0807186
:102110001448016011461348006800F0007000B9CF
:10212000F9E70A46FFE70C48006800F00C01900050
:1021300000F00C00814200D0F5E7DDF800E001B0CE
:10214000704700BF8100010502841D0044060100A4
:102150004019010000200240041002402C100240EF
:10216000FFFF0F000010024081B0024902480160E9
:1021700001B0704740190100000A00200000000073
:10218000000000000000000000000000000000004F
:10219000000000000000000000000000000000003F
:1021A000000000000000000000000000000000002F
:1021B000000000000000000000000000000000001F
:1025C00000000000000000000000000000202D2D91
:1025D0002D2D2053797374656D20496E6974202DFB
:1025E0002D2D2D2000000000000000000000000044
:1025F00000000000000000000000000000000000DB
:1026000000000000000000000000000000000000CA
:1026100000000000000000000000000000000000BA
:1026200000000000000000000000000000000000AA
:10263000000000000000000000000000000000009A
:10264000000000000000000000000000000000008A
:10265000000000000000000000000000000000007A
:10266000000000000000000000000000000000006A
:10267000000000000000000000000000000000005A
:10268000000000000000000000000000000000004A
:10269000000000000000000000000000000000003A
:1026A000000000000000000000000000000000002A
:1026B000000000000000000000000000000000001A
:1026C000000000000000000000000000000000000A
:1026D00000000000000000000000000000000000FA
:1026E00000000000000000000000000000000000EA
:1026F00000000000000000000000000000000000DA
:1027000000000000000000000000000000000000C9
:1027100000000000000000000000000000000000B9
:1027200000000000000000000000000000000000A9
:102730000000000000000000000000000000000099
:102740000000000000000000000000000000000089
:102750000000000000000000000000000000000079
:102760000000000000000000000000000000000069
:102770000000000000000000000000000000000059
:102780000000000000000000000000000000000049
:102790000000000000000000000000000000000039
:1027A0000000000000000000000000000000000029
:1027B0000000000000000000000000000000000019
:1027C0000000000000000000000000000000000009
:1027D00000000000000000000000000000000020D9
:1027E0002000202D2D2D2D2D2D2D2D2D2D2D2D2D60
:1027F0002D2D2D2D2D2D2D2D2D2D2D2D2D2D2D2D09
:102800002D2D2D2D2D2D2D2D2D2D2D200024474E00
:1028100047474100000000000000000000204C611C
:10282000746974756465203A204E6F206461746128
:1028300020617661696C61626C652100204C617475
:102840006974756465203A2000202D2D2D2D2D2DC5
:102850002D2D2D2D2D2D2D2D2D2D2D2D2D2D2D2DA8
:102860002D2D2D2D2D2D2D2D2D2D2D2D2D2D2D2D98
:102870002D2D2000202000202D2D2D2D2D2D2D2D16
:102880002D2D2D2D2D2D2D2D2D2D2D2D2D2D2D2D78
:102890002D2D2D2D2D2D2D2D2D2D2D2D2D2D2D2D68
:1028A000200020416C746974756465203A204E6F75
:1028B000206461746120617661696C61626C65217C
:1028C0000020416C746974756465203A2000202DE5
:1028D0002D2D2D2D2D2D2D2D2D2D2D2D2D2D2D2D28
:1028E0002D2D2D2D2D2D2D2D2D2D2D2D2D2D2D2D18
:1028F0002D2D2D2D2D2D2D2000202000202D2D2D96
:102900002D2D2D2D2D2D2D2D2D2D2D2D2D2D2D2DF7
:102910002D2D2D2D2D2D2D2D2D2D2D2D2D2D2D2DE7
:102920002D2D2D2D2D2000204C6F6E676974756440
:1029300065203A204E6F2064617461206176616980
:102940006C61626C652100204C6F6E676974756400
:1029500065203A2000202D2D2D2D2D2D2D2D2D2DB6
:102960002D2D2D2D2D2D2D2D2D2D2D2D2D2D2D2D97
:102970002D2D2D2D2D2D2D2D2D2D2D2D2D2D2000C1
:102980000000002B0000230000240000255C00262E
:1029900000000000000000003D3F003F00003D003F
:1029A000003A00000D00000038000000390000006F
:1029B000FFFFFFFF0000000000000000000000001B
:1029C0000000000000000000000000000000000007
:1029D00000000000000000000000000018080000D7
:1029E00018000000000000000000000000000000CF
:1029F00000000000000000000000000000000000D7
:102A000000000000000000000000000000000000C6
:102A100030001408090000000A000000FFFFFFFF5B
:102A200000000000000000000000000000000000A6
:102A30000000000000000000000000000000000096
:102A4000000000000000000018080000180000004E
:102A50000000000000000000000000000000000076
:102A60000000000000000000000000000000000066
:102A70000000000000000000000000000400000052
:102A80003500000036000000FFFFFFFF00000000DF
:102A90000000000000000000000000000000000036
:102AA0000000000000000000000000000000000026
:102AB00000000000180800001800000000000000DE
:102AC0000000000000000000000000000000000006
:102AD00000000000000000000000000000000000F6
:102AE0000000000000000000080000083916000087
:102AF000C9160000D5160000BD160000B116000072
:102B00005D16000069160000451600005116000011
:102B10007516000099160000A5160000FFFFFFFFC4
:102B2000FFFFFFFFFFFFFFFFFFFFFFFFFFFFFFFFB5
:102B3000FFFFFFFFFFFFFFFFFFFFFFFFFFFFFFFFA5
:102B4000FFFFFFFFFFFFFFFFFFFFFFFF0000000091
:102B50000000000000000000000000000000000075
:102B60000000000000000000000000000000000065
:102B70000000000000000000000000000000000055
:102B80000000000000000000000000000000000045
:102B9000000000010203040102030406070809FF04
:102BA0008025000000000000000000000000000080
:102BB000110A0000A9090000F909000000B5DFF8BA
:102BC00014B0DFF814A0DFF814C0FFF721F800BD3F
:102BD000704700BF00000020DB030020CD2500006F
:102BE000FFFFFFFFFFFFFFFFFFFFFFFFFFFFFFFFF5
:102BF000FFFFFFFFFFFFFFFFFFFFFFFFFFFFFFFFE5
:102C0000FFFFFFFFFFFFFFFFFFFFFFFFFFFFFFFFD4
:102C1000FFFFFFFFFFFFFFFFFFFFFFFFFFFFFFFFC4
:102C2000FFFFFFFFFFFFFFFFFFFFFFFFFFFFFFFFB4
:102C3000FFFFFFFFFFFFFFFFFFFFFFFF00B5DFF814
:102C400010B0DFF810A0FFF7A5F900BD704700BF76
:102C500000000020140A0020FFFFFFFFFFFFFFFF1E
:00000001FF
